:020000040800F2
:10000000E80C0020010100082B3B0008DD3200084D
:10001000293B0008E9110008DD420008000000004B
:10002000000000000000000000000000AD3D0008DE
:100030004D12000800000000AB3D0008AF3D000875
:100040001B0100081B0100081B0100081B01000820
:100050001B0100081B0100081B0100081B01000810
:100060001B0100081B0100081B0100081B01000800
:100070001B0100081B0100081B0100081B010008F0
:100080001B0100081B0100081B0100081B010008E0
:100090001B0100081B0100081B0100081B010008D0
:1000A0001B0100081B0100081B0100081B010008C0
:1000B0002D3E00081B0100081B0100081B01000861
:1000C0001B0100081B0100081B0100081B010008A0
:1000D0001B0100081B010008C94200081B010008A1
:1000E0001B0100081B0100081B010008DFF80CD0F1
:1000F00000F0E8FD004800478D570008E80C00209C
:100100000648804706480047FEE7FEE7FEE7FEE7B1
:10011000FEE7FEE7FEE7FEE7FEE7FEE72B3E000810
:10012000ED000008202A04DB203A21FA02F0002129
:10013000704721FA02F3D040C2F1200291400843F7
:1001400019467047D2B201E000F8012B491EFBD2DC
:1001500070470022F6E710B513460A4604461946D2
:10016000FFF7F0FF204610BD30B505462A460B4686
:1001700012F8010B13F8014B08B1A042F8D01CB1E2
:10018000002802D06D1CF1E7284630BD421C10F853
:10019000011B0029FBD1801A704700000FB400B585
:1001A0008DB010A909900B9000914FF0FF300A908C
:1001B00000200C9005480690054807906A4609A85B
:1001C0000F9900F0E5FB0DB05DF814FBAD090008D8
:1001D000CB0900082DE9FF5F1D464FF0FF3BD5E935
:1001E000014691465F464FF00008A9697F1C0198BF
:1001F0008847296A824688470028F6D1BAF1FF3F2E
:100200000CD024F4C064002E19DD600614D5BAF1B8
:100210002B0F09D0BAF12D0F0ED103E0584604B0D0
:10022000BDE8F09F44F48064A9697F1C0198884769
:10023000761E8246002E02DDBAF1300F03D0B9F1EE
:10024000000F26D032E0A969761E44F400747F1CAA
:10025000019888478246002E05DDBAF1780F06D056
:10026000BAF1580F03D0B9F1000F10D01EE0B9F168
:10027000000F02D0B9F1100F18D1A969761E24F42D
:1002800000747F1C019888478246102002E00820F5
:1002900000E00A20814609E008FB0908A969761EEA
:1002A00044F400747F1C019888478246002E05DDC7
:1002B0004946504600F058FB0028EDDAE9690198FC
:1002C0008847A00502D46FF00100A8E7E00725D118
:1002D000600613D5600502D5C8F1000000E0404675
:1002E00029680A1D2A600968220501D5087015E0F1
:1002F000220701D5088011E008600FE02868011D81
:1003000029600068210502D580F8008006E02107F9
:1003100002D5A0F8008001E0C0F8008038467EE7F2
:100320002DE9FF5FD2E901A74FF0000891699946D6
:100330001446DDF838B0464601988847054659EA24
:100340000B0005D009E0A169761C01988847054695
:10035000216A284688470028F5D1681C03D05FEA47
:10036000CA7005D015E04FF0FF3004B0BDE8F09F33
:100370002068011D2160D0F800800AE05FEACA70A1
:1003800001D108F8015BA169761C7F1E019888479E
:100390000546002F1ADD681C18D0B9F1000F0DD0EA
:1003A000E81705EBD060421120F01F0059F8221029
:1003B0002A1A012090400142E0D107E0BBF1000F72
:1003C000DCD1216A284688470028D7D0E169019806
:1003D0008847BBF1000F07D1002E05DD5FEACA7028
:1003E00002D1002188F80010A068B84203DDBBF1FB
:1003F000000F03D017B16FF00100B6E73046B4E745
:1004000070B5064603F0B2FF046805460A220021D3
:10041000304600F0EBFA2C6070BDF0B480EA0102C7
:10042000D40F4200B2EB410F02D2024608461146F9
:100430004A0042D0C30DDDB2C1F3C752AD1A202D20
:1004400035DAC1F3160141F4000204B15242C5F19C
:10045000200602FA06F12A411044B3EBD05F23D004
:10046000C4B1012DA0EBC35009DCF0BC4FF0004239
:1004700002EAC352DBB200F5000000F0F8BA400017
:1004800000F1807000EBC350A0F1807040EAD170A1
:10049000490009E0490841EAC071A0EBC35000F5EA
:1004A0000000400800EBC350F0BC00F0D7BA614236
:1004B000012202EB4101001BF6E7F0BC704781F01E
:1004C0000041AAE780F00040A7E780EA010210B5EA
:1004D00002F00043400022D04A001FD0010E01EB81
:1004E0001261C0F35600C2F3560240F4000042F419
:1004F0000002A0FB022000047F39140400D0401C3D
:1005000050EA124001D44000491EC2B20C0604EB6E
:10051000D010401C4008802A02D003E0002010BD0B
:1005200020F00100002900DA0020184310BD30B48B
:1005300080EA010202F0004530F0004221F0004064
:1005400013D090B1C30DD40DC2F31601C0F3160041
:10055000E41A41F4000140F400027D34914201D3D9
:10056000641C00E04900002C02DA30BC0020704717
:100570004FF400000023914201D3891A034340083D
:100580004FEA4101F7D151B1914202D14FF0004100
:1005900005E002D24FF0010101E06FF0010103EB31
:1005A000C450284430BC00F059BA420005D0C0F312
:1005B000C7525242914201DC0020704700EBC1500B
:1005C00070472DE9FE4F804681EA0300C00F0C46BC
:1005D000009021F0004123F00045B8EB0200A94152
:1005E00005D24046214690461C460B46024623F063
:1005F0000040104347D0270DC7F30A00C3F30A5148
:100600000290401A019040286BDAC3F3130040F4C3
:10061000801B0098924620B10023D2EB030A63EBC3
:100620000B0B01985946C0F14002504600F07BF98F
:1006300006460D4650465946019A00F083F910EBE4
:1006400008006141002487EA115284EAE7731A43E3
:1006500040D0009A62B3019A012A4FEA075215DC92
:10066000001B61EB02014FF0004202EA0752CDE9A4
:100670000042001C41F5801132462B4600F034FA4E
:1006800003B0BDE8F08F40462146F9E7001B61EB5F
:100690000201001C41F5801300185B412018A2F5EF
:1006A000001747EB030140EAD570B6196D4111E020
:1006B0006D084FEA360645EAC0754FEA0752001B3F
:1006C00061EB0201001C41F5801149084FEA30003E
:1006D0000019514132462B4603B0BDE8F04F00F0FF
:1006E000F4B90098012240000023D0EB020263EB32
:1006F000E073009821464FEAE074B8EB000061EB2C
:100700000401E9E783F000435BE781F0004158E72B
:100710002DE9FE4F81EA030404F0004421F000417A
:1007200000944FF0000B23F0004350EA01045ED028
:1007300052EA03045BD0C3F30A54C1F30A552C44B4
:10074000A4F2F3340194A0FB0254C1F3130141F469
:100750008011C3F3130343F4801301FB024400FB35
:10076000034E840A970A44EA815447EA8357A4FB5C
:10077000076802958D0A05FB07854FEA932C04FB59
:100780000C542705029D4FEA065847EA1637B5EB89
:1007900008056EEB070C870E920E47EA811742EAB6
:1007A0008312A7FB0201B6EB0B0164EB00042B0DD7
:1007B00043EA0C335E1844EB1C50DA465146E7FB23
:1007C0000201C5F313044FEA0B3343EA14534FEA13
:1007D0000432019C43EA0603A4F10C040294009C39
:1007E000CDE900B400F080F903B0BDE8F08F00203F
:1007F0000146F9E796230022114600F038B920F0AF
:100800000040C10DC0F3160040F400007F2901DA5A
:1008100000207047962903DCC1F19601C84070475B
:1008200096398840704700F0004230F000400AD00E
:10083000C10D01F56071C0F3160042EA0151C20812
:1008400040071143704700200146704701F0004304
:1008500030B421F0004150EA010206D00A0DA2F5A1
:100860006072C1F31301002A02DC30BC0020704723
:10087000440F44EAC104C100E01830BC00EBC25090
:1008800000F0ECB8002801DBC0F10040002901DBDA
:10089000C1F100418142704730B50B46014600204E
:1008A0002022012409E021FA02F59D4205D303FA32
:1008B00002F5491B04FA02F52844151EA2F10102B3
:1008C000F1DC30BD2DE9F05F0546002092469B46E5
:1008D00088460646814640241BE028464146474656
:1008E0002246FFF71FFC53465A46C01A914110D3C7
:1008F00011461846224600F016F82D1A67EB01083B
:100900004F4622460120002100F00DF817EB0009A8
:100910004E41201EA4F10104DFDC484631462A4640
:100920004346BDE8F09F202A04DB203A00FA02F19A
:10093000002070479140C2F1200320FA03F31943CD
:1009400090407047202A06DBCB17203A41FA02F08C
:1009500043EAE07306E041FA02F3D040C2F120021C
:1009600091400843194670473A2800D2303820F0A9
:100970002002412A01D3A2F13700884201D34FF06F
:10098000FF307047026811441378016018467047C1
:10099000D16004495161044911620021116111467D
:1009A00000F0B0B985090008F10C0008426842B1B6
:1009B000016811F8013B23B1521EC0E9001218462C
:1009C00070470121C160881E704742685AB1C368F0
:1009D000016843B983688B4205D0491E521CC0E9A7
:1009E0000012002070474FF0FF3070472DE9F047AC
:1009F00091460F4680460446002614F8015B2DB14F
:100A000000F072F90068405DC007F6D12B2D02D0CE
:100A10002D2D18D0641E4A463946204600F008FBAA
:100A200027B13968A14201D1C7F8008071054FF0A4
:100A300002040BD54042002803DD03F097FC04605C
:100A4000A007BDE8F08746F48066E4E70028F8DAFE
:100A500003F08CFC04606FF00040F2E70029A8BFAF
:100A60007047401C490008BF20F00100704710B4D7
:100A7000B0FA80FC00FA0CF050EA010404BF10BC8C
:100A8000704749B1CCF1200421FA04F411FA0CF1B9
:100A900018BF012121430843A3EB0C01CB1D4FEAF2
:100AA00000614FEA102042BF002010BC704700EBED
:100AB000C35010440029A4BF10BC7047401C49001B
:100AC00008BF20F0010010BC704710B5141E73F170
:100AD000000408DA401C41F1000192185B411A43FE
:100AE00001D120F0010010BD2DE9F04D92469B464A
:100AF00011B1B1FA81F202E0B0FA80F220329046F0
:100B0000FFF711FF04460F4640EA0A0041EA0B01D5
:100B100053465A46084313D0114653EA010019D0F0
:100B2000C8F140025046FFF7FDFA05460E46504612
:100B300059464246FFF7F7FE084305D0012004E07E
:100B400020463946BDE8F08D0020054346EAE076B0
:100B50002C4337430A986305E40AA0EB08000022FF
:100B6000FD0A44EA47540A3002D500200146E9E76D
:100B7000010510196941DDE9084500196941BDE821
:100B8000F04DA2E72DE9F04D81EA030404F0004B9B
:100B900021F0004514464FF0000A23F0004150EACE
:100BA000050220D054EA01021DD0C5F30A570246BF
:100BB000C5F31303C1F31300C1F30A5640F48015C3
:100BC00043F48013A7EB0608101BD64608F2FD3845
:100BD00073EB050002D308F1010801E092185B41B4
:100BE000B8F1000F03DA00200146BDE8F08D0020C7
:100BF0004FF48011064684460EE0171B73EB050781
:100C000005D3121B63EB050306434CEA010C4908AC
:100C10004FEA300092185B4150EA0107EDD152EAE9
:100C2000030012D082EA040083EA0501084305D0DC
:100C3000101BAB4106D20122002306E000224FF038
:100C4000004302E06FF0010253101AEB06004CEB78
:100C5000085110EB0A0041EB0B01BDE8F04DFFF726
:100C600034BFC1F30A52C1F3130140F2FF3341F420
:100C700080119A4202DA00200146704740F2334365
:100C80009A42A2F2334202DC5242FFF74BBAFFF71C
:100C90004ABE000030B5041E71F1000404DB4FF0C1
:100CA0000044404264EB0101141E73F1000405DBB3
:100CB0001C464FF00043524263EB0403994208BFC5
:100CC000904230BD064C074D06E0E06840F001035D
:100CD00094E8070098471034AC42F6D3FFF70AFABD
:100CE000B06E0008D06E0008004870474C6C0008D9
:100CF00010B50446FFF7F8FF0068005D00F0010042
:100D000010BD00002DE9F34F8BB04FF0000801F14A
:100D10000C000C464FF0010B46460DF1080A0190FD
:100D20006269012101989047051E2DD0252D2CD0F8
:100D3000216A8847C0B16269012101989047216A00
:100D400088470028F7D1411E62690198904700E06A
:100D5000761CA1690B988847216A88470028F7D13B
:100D6000E1690B988847DBE7A1690B98884707463C
:100D7000A84201D1761CD3E7E1690B9888477F1C14
:100D800002D1B8F1000F6FD046E1002762693D46FD
:100D90003946019890472A2804D1626901210198B7
:100DA00090470125DFF884926269012101989047FC
:100DB000A0F130010A290AD24F45E5DC07EB870193
:100DC00000EB4107303FDFD445F01005ECE7E906C2
:100DD00001D46FF000476C280AD04C2814D0682842
:100DE00015D06A280DD074281CD07A281AD01DE09E
:100DF00062690121019890476C2802D045F00405F2
:100E000014E045F002050DE045F020050AE06269B6
:100E1000012101989047682802D045F0080505E0B7
:100E200045F400656269012101989047C4E90157C2
:100E300065283DD019DC58287AD00CDC452837D0FD
:100E400004DC252826D0412831D131E046282FD096
:100E500047282CD12CE05B2877D0612828D0632844
:100E60007CD0642823D15AE0D0E06F2848D008DC39
:100E700066281DD067281BD0692821D06E2816D17E
:100E800027E0702845D0732868D0752847D0782887
:100E90000DD14DE0A1690B988847054625283FF400
:100EA00069AFE1690B9888476D1C3FF46AAFB3E006
:100EB00023466A466FF001000B99AFF300809EE075
:100EC00045F040006060A80723464FF0000236D48A
:100ED0003EE0E8077FF447AF2068011D216000680D
:100EE000290501D506701BE7290701D5068017E7FC
:100EF000A90703D5F117C0E9006111E706600FE704
:100F000045F040006060A80723464FF0080216D461
:100F10001EE040F60E0125EA0100606016E045F093
:100F200040006060A80723464FF00A0207D40FE094
:100F300045F040006060A80708D5234610226FF0F6
:100F400001000B99AFF3008059E007E0234610221F
:100F50006FF001000B99FFF73DF950E04FF00009E9
:100F60004F464B46632802D05B2806D040E0E80697
:100F700001D40120A06001273AE0626901210198B3
:100F800090475E2805D14FF00109626949460198F2
:100F90009047216939B900210A46534643F8212078
:100FA000491C0829FADBB0B3216969B9C11700EB04
:100FB000D16253110AEB830122F01F02821A012031
:100FC0000B68904003430B606269012101989047D0
:100FD0005D28E8D1B9F1000F09D00020514651F841
:100FE0002020D24341F82020401C0828F7DB02AB28
:100FF000224600976FF001000B99FFF791F9002846
:101000000CDA401C08D1BBF1000F05D04FF0FF30C7
:101010000DB0BDE8F08FFFE74046F9E7E90701D1E1
:1010200008F1010806444FF0000B79E6CCCCCC0C5B
:101030002DE9F05F82460078002715468B460AF1BD
:101040000104B946302801D09DB113E014F8010B1A
:101050000127782803D0582801D045B10AE00DB106
:10106000102D07D10027102514F8010B02E00825E8
:1010700000E00A250026B0460EE005FB080005FB4F
:1010800006F1012701EB10461FFA80F8B6F5803F04
:1010900000D3B94614F8010B2946FFF765FC002878
:1010A000EBDABBF1000F05D00FB1641E00E054462F
:1010B000CBF80040B9F1000F06D003F057F9022138
:1010C0000160C81EBDE8F09F48EA0640FAE700004C
:1010D00070B5044600688168C943C90717D18168A3
:1010E00021F00101816000F0A5FC05460AE000BF87
:1010F00000F0A0FC401B022804D920688068C0438F
:10110000C00706D020688068C043C007F0D0002028
:1011100070BDA06A40F01000A062E06A40F00100DB
:10112000E062012070BD0000F8B50026044600967C
:1011300000688168C943C9072DD0816841F0010169
:101140008160164816490068B0FBF1F000E0401ECF
:1011500000900028FBD100F06DFC054616E000BFB2
:1011600000F068FC401B022810D920688068C0434A
:10117000C0070BD0A06A40F01000A062E06A40F007
:101180000100E06284F824600120F8BD20688068D6
:10119000C043C007E4D10020F8BD00000C000020CF
:1011A00040420F0008B501208DF800000146684656
:1011B00000F00EF808BD000008B5012200920B46B1
:1011C00002464721014800F0FFFC08BDF400002062
:1011D00008B5012200920B4602464621014800F064
:1011E0001BFE08BDF4000020FEE7000070B50025DE
:1011F00006462C463544052000F010FB641CE4B282
:10120000052CF7D30520B5FBF0F0C0F58050FFF7B3
:10121000F1FA6FF00B01FFF7C8F90949FFF755F92B
:10122000FFF701FB4FF03332064BFFF771FA002254
:10123000054BFFF7C6F9BDE87040FFF707BB00009C
:101240000000C8423333F33F00001440704772B6C9
:10125000FEE700000EB500200090029001200190F2
:1012600069460C4800F018F808B1FFF7F0FF09488C
:1012700000F004FA08B1FFF7EAFF6421054800F026
:101280005FF908B100200EBD024800F083F880B27B
:101290000EBD000070000020F8B50024009490F806
:1012A00024202546012A12D0012280F824204A68F1
:1012B0001F23072A0DD20668776B521E02EB8202AB
:1012C00093409F430B6893401F43776319E00220CC
:1012D000F8BD06680D2A0AD2376BD21F02EB8202D4
:1012E00093409F430B6893401F43376309E0F76ABD
:1012F0000D3A02EB820293409F430B6893401F43D9
:10130000F7620A68072306680A2A0AD3F7680A3AC6
:1013100002EB420293409F438B6893401F43F76068
:1013200008E0376902EB420293409F438B68934089
:101330001F4337610A68102A01D0112A20D1124BAD
:1013400002689A4217D193681B0219D4936843F438
:10135000000393600968102912D10C490C4A0968EE
:10136000B1FBF2F101EB8101490000E0491E00915F
:101370000029FBD104E0816A41F02001816201244F
:1013800080F824502046F8BD002401400C000020C5
:1013900040420F000068C06C704700002DE9F0412A
:1013A0004FF0000704003D467ED0A06A002628B911
:1013B000E66284F82460204600F07EF82046FFF7BD
:1013C00087FEA16AC90600D420B1A06A40F01000CF
:1013D000A06269E0A16A21F4885141F00201A16292
:1013E0006268E169237B0A4347EA43010A43A16833
:1013F0004FF48077B94209D0012907D05FF000018E
:1014000094F814C0BCF1010F02D00AE03946F7E7A6
:10141000F3B1A36A43F02003A362E36A43F001033C
:10142000E3622368D3F804C02CF4694C4CEA010C45
:10143000C3F804C021688B68DFF870C003EA0C03AE
:1014400013438B60A168B9420BD0012909D00CE08D
:10145000DFF85CC0A3690CEB43330B4343F400613A
:10146000DFE7218A0D05A5F580152168CB6A23F4F5
:1014700070032B43CB62216889680E4B194091425F
:1014800008D1E662A16A21F0020141F00101A162E6
:10149000BDE8F081A06A20F0020040F01000A062D8
:1014A000E06A40F00100E0620120F1E7FDF7E1FFB2
:1014B00000E0FFFFFE0E1FFF10B586B00021009177
:1014C0000191029103911A4C03681A4903221A48A8
:1014D000A34211D18B6943F400738B618B6903F4D0
:1014E000007304938B6943F004038B61896901F0F5
:1014F00004010491022113E0104CA34215D18B6921
:1015000043F480638B618B6903F4806304938B697C
:1015100043F004038B61896901F004010491012106
:10152000CDE90012694600F08BF906B010BD00004D
:101530000024014000100240000801400028014042
:101540002DE9F84300270D460446009700F072FA93
:10155000804620688168C90508D5A06A40F020004F
:10156000A06284F824700120BDE8F8834168C905B1
:1015700003D4C06A10F4700F2AD0022000F0CEFD10
:101580003B490968B1FBF0F62068036939490B4211
:101590004FEA61014FEAA1121FD1C3684FEA611CF3
:1015A00013EA0C0F19D103690B4225D1C068104210
:1015B00022D1142023E0681C0AD02DB100F03AFAA1
:1015C000A0EB0800A84203D920680068800725D551
:1015D000206800688007EED52DE003690B4202D138
:1015E000C168114206D0026923490A4206D1C06887
:1015F000084203D1542002E0292000E0FC204643A9
:10160000009816E0681C11D02DB100F013FAA0EB81
:101610000800A8420AD90098B04207D2A06A40F058
:101620000400A06284F8247003209DE70098401C09
:101630000090B042E6D321686FF012000860A06A03
:1016400040F40070A06220688068C0F34240072820
:101650000CD1207B50B9A06A20F48070A062A06AEF
:10166000C00403D4A06A40F00100A06200207BE720
:101670000C000020244992244992240070B50446AD
:1016800090F8240001280DD0012084F82400204681
:10169000FFF74AFD02004FF0000005D084F8240057
:1016A000104670BD022070BDA16A40F2012399432B
:1016B00041F48071A1621F4D23681F49AB4218D1CC
:1016C0000E6816F4702F14D0A66A46F48016A6622F
:1016D0000E68760505D5A66A26F4005646F48056AF
:1016E000A662A66AF6040AD5E66A26F00606E6624F
:1016F00006E0A66A26F48016A6625E68E9E7E06264
:1017000084F824006FF00200186020688368C3F337
:101710004243072B05D1A84208D1096811F4702F64
:1017200004D0816841F480118160B9E7816841F497
:10173000A001F9E7002801400424014010B590F809
:1017400021100022022905D00421816380F8202085
:10175000012010BD01680B6823F00E030B600168C7
:101760000B6823F001030B6090F84030C46B01213B
:1017700001FA03F3636080F8211080F820201046FE
:1017800010BD000010B590F821100024022903D0EC
:101790000421816301243DE001680A6822F00E0201
:1017A0000A6001680A6822F001020A601A4A0168A8
:1017B000914201D1012121E0174A1432914201D115
:1017C00010211BE0144A2832914201D1891515E0FD
:1017D000114A3C32914201D189140FE00E4A503235
:1017E000914202D14FF4803108E00B4A64329142B9
:1017F00002D14FF4801101E04FF08071064A083A9F
:101800005160012180F82110002180F82010416BE7
:1018100001B18847204610BD0800024070B504465B
:1018200000F008F90546601C02D004480078044422
:1018300000F000F9401BA042FAD370BD0000002068
:101840002DE9F84FDFF8B8910024A9F1040B2346E5
:101850000F2709F1040AABF1040EC9E00125A540E8
:101860002A40AA427DD1674ED1F804C0ACEB0608ED
:10187000B44532D014DCBCF1030F3AD009DCBCF122
:10188000000F2AD0BCF1010F1CD0BCF1020F31D1E6
:101890001DE0BCF1110F17D0BCF1120F2AD119E0D5
:1018A000B8F5881F19D006DCB8F5803F15D0B8F51B
:1018B000801F1FD111E0B8F5001F0ED0B8F5041F2E
:1018C00018D10AE0CB6815E0CB681B1D12E0CB688D
:1018D00008330FE0CB680C330CE08B682BB1012B85
:1018E0004FF0080303D0456104E0042302E00561E2
:1018F00000E00023FF2A01D8064601E000F10406BB
:101900004FEA840501D9A5F12005D6F8008007FA31
:1019100005FC28EA0C0803FA05F548EA0508C6F8AC
:1019200000804D68ED0062D5374DAE6946F0010686
:10193000AE61AD6924F0030605F001050095334D55
:1019400006EB050CDCF80850A607360F07FA06F878
:1019500025EA0805DFF8B880404503D14FF00008BC
:1019600017E044E0DFF8AC80404502D14FF00108B9
:101970000FE0DFF8A480404502D14FF0020808E0F4
:10198000DFF89880404502D14FF0030801E04FF0A6
:10199000040808FA06F848EA0508CCF808804D68FB
:1019A000D9F80060ED024D4601D5164300E096439C
:1019B0002E604D68DAF80060AD02554601D5164339
:1019C00000E096432E604D68DBF80060AD035D4695
:1019D00001D5164300E096432E604D68DEF80060A6
:1019E000ED03754601D5164300E096432E60641C56
:1019F0000D682A46E5407FF431AFBDE8F88F00005E
:101A000008040140000011100010024000000140D5
:101A100000080140000C014000100140001401408A
:101A20008068084000D0012070470AB1016170470A
:101A30000904FBE7014880687047000000000020AF
:101A400070B5040025D094F83D00002520B984F835
:101A50003C50204600F076FA242084F83D002068AF
:101A6000016821F0010101602068016841F4004132
:101A700001602068016821F40041016000F0ACFCC5
:101A80004D4A6168914201D84C4900E04C49884276
:101A900001D2012070BD4B492368B0FBF1F15E68B3
:101AA00026F03F060E435E606368934206D94FF40A
:101AB000967359434FF47A73B1FBF3F12368491CD1
:101AC0001E6A26F03F06314319626168914210D8C0
:101AD0004900401EB0FBF1F2521CC2F30B02042A73
:101AE00001D2042022E0B0FBF1F0401CC0F30B0057
:101AF0001CE0A268F2B301EBC10303EB0116431E25
:101B0000B3FBF6F35B1C43F480431B0549D092B34F
:101B100001EBC10202EB0111401EB0FBF1F0401CD1
:101B2000C0F30B0040F4804040F400402168CA69D3
:101B30004CF6FF739A431043C861D4E90710014380
:101B40002068026822F0C00211430160D4E9030159
:101B500001432068826848F2FF339A431143816051
:101B6000D4E9050108432168CA6822F0FF02104346
:101B7000C86001E00EE016E02068016841F0010154
:101B800001602564202084F83D00256384F83E50E0
:101B9000002070BD01EB4106431EB3FBF6F35B1C56
:101BA000B3E70120C2E701EB4101401EB0FBF1F0B9
:101BB000401CC0F30B00B7E7A086010080841E0024
:101BC00000093D0040420F002DE9F84F0025DDF8E7
:101BD0002890984617468A4604460095FFF72AFF44
:101BE000064694F83D0020287AD11923012286491F
:101BF0002046009601F07AFC0028F5D194F83C00CC
:101C000001286DD0012084F83C0020680168C907D4
:101C100003D1016841F0010101602068016821F4ED
:101C200000610160222084F83D00102084F83E000D
:101C300025646762A4F82A80608D20857348E0627D
:101C400033464A465146204601F060FB00287CD1CD
:101C5000208DDFF8BC81202768B1012814D002282C
:101C6000206801681ED041F48061016020684169EC
:101C700080690090BBE0206841698169009101683A
:101C800041F400710160B2E02068016821F48061D4
:101C9000016072B62068416981690091016841F470
:101CA00000710AE041F40061016072B62068416988
:101CB00081690091016821F48061016062B696E05B
:101CC000032865D801280CD002284B464FF00002AB
:101CD0004146204600960BD001F008FCA8BB0CE062
:101CE00090E032464946204601F0A6FC68BB71E010
:101CF00001F0FCFB48BB72B633E02068016821F4B8
:101D00008061016072B620680069616A0870606A6B
:101D1000401C6062208D401E2085608D401E6085C5
:101D20003C4846F2A8110068B0FBF1F0C0EBC000DF
:101D300000EB80000090401E009007D020684069B2
:101D4000C04340070DD50098F5E727E044F8305F21
:101D50006773A573206940F02000206162B6257387
:101D60001CE02068016841F400710160206800698E
:101D7000616A0870606A401C6062218D491E21857D
:101D8000618D491E618562B621680969017025E08F
:101D900032464946204601F04FFC10B10120BDE813
:101DA000F88F20680069616A0870606A401C606290
:101DB000208D401E81B22185608D401E6085206887
:101DC0004269D243520712D4032903D1016821F496
:101DD0008061016020680069616A0870606A401C67
:101DE0006062208D401E2085608D401E6085208DA4
:101DF00000287FF465AF84F83D7084F83E5084F885
:101E00003C50CCE70220CAE7020010000000FFFFB0
:101E1000040001000C0000202DE9F84F1F469046F9
:101E20008A460446DDF82890FFF704FE054694F83C
:101E30003D0020287FD119230122404920460095EA
:101E400001F054FB002876D194F83C00012872D0B0
:101E5000012084F83C0020680168C90703D10168AB
:101E600041F0010101602068016821F40061016016
:101E7000212084F83D00102084F83E0000262664CE
:101E8000C4F824806785608D20852D48E0622B464C
:101E90004A465146204601F0AFFA90B920684169A0
:101EA0008069009036E02A464946204601F0FCFB56
:101EB00050B1206C042804D12068016841F40071FD
:101EC00001600120BDE8F88F606A21680078086130
:101ED000606A401C6062618D491E6185218D491ECA
:101EE00089B2218522685369DB435B070BD451B16A
:101EF00000781061606A401C6062608D401E6085E1
:101F0000208D401E20852A464946204601F0C2FA0F
:101F10000028CED1208D0028C5D154F83D0B016892
:101F200041F400710160202004F81E09E67766770D
:101F30000020C7E7FFE70220C4E70000020010000E
:101F40000000FFFF30B585B00021009101910291A2
:101F50000391214D0368214C122103222048AB42FA
:101F60001DD1A36943F00803A361A369039203F0A1
:101F7000080304931302CDE900316946FFF760FCC2
:101F80001848416841F0E06141F002014160E069B8
:101F900040F40010E061E06900F4001019E0124D17
:101FA000AB4217D1A36943F00803A361A36903926D
:101FB00003F0080304934FF44063CDE90031694610
:101FC000FFF73EFCE06940F48000E061E06900F466
:101FD0008000049005B030BD005400400010024065
:101FE000000C014000000140005800400248816898
:101FF000027811448160704700000020074810B546
:10200000016841F010010160032000F075F80F2015
:1020100000F006F800F024F8002010BD0020024077
:1020200070B50D4D04464FF47A712878B1FBF0F08D
:102030000A490968B1FBF0F000F0A4FB48B9102C84
:1020400007D200222146501E00F036F800206C60B6
:1020500070BD012070BD0000000000200C000020B9
:102060000C4808B5816941F001018161816901F085
:1020700001010091C16941F08051C161C06900F066
:10208000805000900448416821F0E06141F0007107
:10209000416008BD0010024000000140002809DB3B
:1020A00000F01F02012191404009800000F1E02072
:1020B000C0F8001170470000F0B40E4B1B680C46CE
:1020C000C3F30223C3F10705042D00D90425191D0C
:1020D000072901D2002300E0DB1E012606FA05F1E4
:1020E000491E214099409E40761E16403143F0BC67
:1020F00002F02CB90CED00E0064900F00702086878
:102100004FF6FF03184040EA0220034A10430860DC
:10211000704700000CED00E00000FA0510B5014624
:102120000020234C012922D0022939D010291DD1A9
:1021300061682268D20119D51E48C1F38342C903E0
:10214000805C0AD561681B4AC1F34041921E515C14
:10215000194AB2FBF1F1484301E01849484361686C
:10216000490203D440000321B0FBF1F010BD226A04
:10217000C2F30121012903D1920701D5C80310BD83
:10218000022905D1626A920702D549F6404010BD86
:102190000329FCD121688903F9D54FF2244010BDF1
:1021A00000F02AF96168C1F38131491C4900DBE77D
:1021B000001002402C63000800127A0000093D0064
:1021C0002DE9F84305460078354CC00754D0E06946
:1021D0000026C00008D4E06940F08050E061E0696A
:1021E000012600F0805000902E480168C90512D4E5
:1021F0000168804641F480710160FFF71BFC0746CF
:1022000005E000BFFFF716FCC01B642823D8D8F8F0
:102210000000C005F6D5206A10F4407021D0A988CE
:1022200001F4407181421CD0206A1F49012220F430
:1022300040700A6000220A602062C00711D0FFF7D8
:10224000F9FB074641F2883808E000BFFFF7F2FBD0
:10225000C11B414502D90320BDE8F883206A8007ED
:10226000F4D5206A696820F44070084320621EB1EA
:10227000E06920F08050E0612878800705D560682B
:10228000A96820F44040084360602878C00605D55E
:102290006068E96820F48000084360600020DBE7A4
:1022A0000010024000700040400442422DE9F04717
:1022B0000F46050061D0434E306800F00700B84279
:1022C00009D2306820F0070038433060306800F0F1
:1022D0000700B84251D128683B4C810712D540070E
:1022E00003D5606840F4E06060602878000703D59B
:1022F000606840F4605060606068A96820F0F00099
:10230000084360602878C00728D06868012810D08A
:102310002168022810D0890700292EDA616821F08F
:10232000030101436160FFF785FB804641F2883974
:102330000DE021688903EFE78901EDE7FFF77AFBFC
:10234000A0EB0801494502D90320BDE8F087606889
:10235000696800F00C00B0EB810FEFD1306800F03D
:102360000700B8420BD9306820F0070038433060CE
:10237000306800F00700B84201D00120E5E7287876
:10238000400705D56068E96820F4E06008436060B4
:102390002878000706D56068296920F4605040EA73
:1023A000C100606000F038F86168084AC1F30311A9
:1023B000515CC8400649086006480068FFF730FED7
:1023C0000020C2E700200240001002403C630008E9
:1023D0000C000020040000200448054900684968FA
:1023E000044AC1F30221515CC84070470C00002030
:1023F000001002404C630008044805490068496821
:10240000044AC1F3C221515CC84070470C0000204F
:10241000001002404C6300080E4A51680E4801F05B
:102420000C03042B11D0082B0FD10C48C1F38343AC
:10243000C903C05C0AD55168084AC1F34041921EE5
:10244000515C054A5043B0FBF1F0704704494843E2
:10245000704700000010024000127A001A63000862
:1024600000093D002DE9F84F040070D02078C04DE0
:10247000C00749D06868C0F38100012807D06868A8
:10248000C0F38100022809D16868C00306D5286816
:10249000800339D560680028E7D035E06068B0F582
:1024A000803F0BD010B1B0F5A02F11D0286820F4D8
:1024B00080302860286820F4802002E0286840F4FA
:1024C00080302860606890B1FFF7B4FA06460AE0F1
:1024D000286840F480202860F0E700BFFFF7AAFAE0
:1024E000801B642873D828688003F7D50CE0FFF7B9
:1024F000A1FA064605E000BFFFF79CFA801B64289E
:10250000F0D828688003F7D420789A4E80074FF0DF
:1025100001094FF0000839D5686810F00C0F07D09A
:102520006868C0F38100022809D16868C00306D436
:102530002868800714D52069012808D110E0206997
:10254000B0B1C6F80090FFF775FA074605E00AE15A
:10255000FFF770FAC01B0228C4D828688007F7D597
:102560002868616920F0F80040EAC10028600DE0A9
:10257000C6F80080FFF75EFA074604E0FFF75AFA54
:10258000C01B022823D828688007F7D420780007CA
:102590002CD57948A169D9B1C0F80090FFF74AFA63
:1025A000074604E0FFF746FAC01B02280FD8686A06
:1025B0008007F7D571484FF4FA510068B0FBF1F08D
:1025C000009000BF0098411E0091FAD20EE080E01A
:1025D000C0F80080FFF72EFA074604E0FFF72AFA5A
:1025E000C01B022875D8686A8007F7D42078400796
:1025F00060D5E8690027C00008D4E86940F0805041
:10260000E861E869012700F0805000905C480168AB
:10261000C90513D40168834641F480710160FFF756
:1026200009FA824606E000BFFFF704FAA0EB0A00B1
:1026300064284ED8DBF80000C005F5D5E068012815
:102640000AD008B1052813D0286A20F001002862BA
:10265000286A20F0040002E0286A40F001002862A5
:10266000E06841F2883B98B1FFF7E4F982460BE05D
:10267000286A40F004002862EEE700BFFFF7DAF9AD
:10268000A0EB0A0159455AD8286A8007F6D50CE014
:10269000FFF7D0F9824605E0FFF7CCF9A0EB0A017D
:1026A00059454CD8286A8007F6D41FB1E86920F054
:1026B0008050E861E06988B36968C1F3810102294B
:1026C00044D00228C6F8608004D0FFF7B3F904466E
:1026D00038E034E0FFF7AEF9074604E0FFF7AAF967
:1026E000C01B02282BD828688001F7D4206AB0F5D7
:1026F000803F05D16868A16820F400300843686015
:10270000D4E908010843696821F47411084368603A
:10271000C6F86090FFF78EF9044606E025E000BF9A
:10272000FFF788F9001B022809D828688001F7D52F
:102730001BE000BFFFF77EF9001B022802D903202F
:10274000BDE8F88F28688001F4D40EE00128F7D0A6
:102750006868226A00F48031914204D1616A00F411
:102760007010884201D00120EAE70020E8E700006D
:102770000010024000004242800442420C0000204F
:102780000070004010B5401EB0F1807F01D30120E1
:1027900010BD4FF0E02460610F21601701F0D6FDFD
:1027A0000020A06107202061002010BD7047704705
:1027B00010B590F83C20012A22D0012280F83C205C
:1027C000CA688C6822F4407222434C6822F480620A
:1027D00022430C6822F4006222430C6922F48052E6
:1027E00022434C6922F400522243C969002322F497
:1027F00080420A4301684A6480F83C30002010BDE2
:10280000022010BD70B590F83C20012A26D001248A
:1028100080F83C40022280F83D2003685A689D6899
:1028200022F070060A6832435A600D4B02689A42E1
:1028300008D0B2F1804F05D00A4B9A4202D00A4B21
:102840009A4204D1496825F080031943916080F8C9
:102850003D40002180F83C10084670BD022070BD4C
:10286000002C0140000400400008004010B50400A6
:1028700003D094F83D0010B107E0012010BD002006
:1028800084F83C00204600F01FF8022084F83D0048
:10289000211D206801F0D0FA012084F8460084F858
:1028A0003E0084F83F0084F8400084F8410084F83A
:1028B000420084F8430084F8440084F8450084F81A
:1028C0003D00002010BD000008B50068B0F1804F49
:1028D00012D10A48C16941F00101C161C0690022F9
:1028E00000F00100009011461C20FFF7E5FBBDE859
:1028F00008401C20FFF7D2BB08BD000000100240BA
:1029000090F83D10012901D001207047022180F884
:102910003D100168CA6842F00102CA6000680B49B4
:10292000884208D0B0F1804F05D00949884202D0D2
:102930000849884204D1816801F00701062903D0C3
:10294000016841F00101016000207047002C014046
:10295000000400400008004070B5044690F83C00B8
:102960000025012817D0012684F83C60022084F855
:102970003D002068826822F0770222F47F42826064
:102980000868502838D00DDC20284FD005DC90B3E3
:10299000102811D14AE0022070BD302846D04028CE
:1029A0000AD13BE060282FD070280DD0B0F5805FB1
:1029B00003D0B0F5005F12D0012584F83D600020FF
:1029C00084F83C00284670BDCB68D1E9012120681D
:1029D00001F07BFA2068816841F0770109E0CB685B
:1029E000D1E90121206801F070FA2068816841F482
:1029F00080418160E1E719E0CA684968206801F018
:102A000019FB5021206806E0CA684968206801F077
:102A100022FB6021206801F062FACEE7CA684968AB
:102A2000206801F007FB40212068F4E72268014696
:102A30001046F0E770472DE9F04104460068C6688B
:102A400005694FF00007A90713D5B10711D5F91E85
:102A5000016101202077206880698007204602D02C
:102A6000FFF7E8FF04E000F0A5F8204600F04AF97F
:102A70002777680716D5700714D521686FF0040012
:102A80000861022020772068806910F4407F20468A
:102A900002D0FFF7CFFF04E000F08CF8204600F0F2
:102AA00031F92777280715D5300713D521686FF03E
:102AB00008000861042020772068C069800720464C
:102AC00002D0FFF7B7FF04E000F074F8204600F0F2
:102AD00019F92777E80616D5F00614D521686FF0A6
:102AE00010000861082020772068C06910F4407F3A
:102AF000204602D0FFF79EFF04E000F05BF820467E
:102B000000F000F92777E80708D0F00706D0216821
:102B10006FF001000861204600F044F9280608D54E
:102B2000300606D521686FF0800008612046FFF767
:102B30003DFE680608D5700606D521686FF0400096
:102B40000861204600F04EF9A8060AD5B00608D55F
:102B500021686FF0200008612046BDE8F041FFF7D2
:102B600026BEBDE8F081000000B585B000210091CF
:102B700001910291039100680B49884212D10B48E0
:102B8000816941F0040181618069694600F00400B7
:102B900004904FF48070009002200190039004484C
:102BA000FEF74EFE05B000BD002C014000100240B3
:102BB00000080140704770B5044690F83C000026BC
:102BC0000D4601280FD0012084F83C006AB1042A88
:102BD0001DD0082A2FD00C2A3FD00126002084F8CF
:102BE0003C00304670BD022070BD206801F080F9C5
:102BF0002068816941F0080181612068816921F0C4
:102C000004018161206881692A69114311E020680B
:102C100001F096F92068816941F4006181612068C2
:102C2000816921F480618161206881692A6941EAB2
:102C300002218161D2E7206801F0AEF92068C16904
:102C400041F00801C1612068C16921F00401C1613E
:102C50002068C1692A69114311E0206801F0C8F9B0
:102C60002068C16941F40061C1612068C16921F433
:102C70008061C1612068C1692A6941EA0221C1619C
:102C8000ACE710B5040003D094F83D0010B107E0A4
:102C9000012010BD002084F83C00204600F01EF802
:102CA000022084F83D00211D206801F0C5F80120B4
:102CB00084F8460084F83E0084F83F0084F8400021
:102CC00084F8410084F8420084F8430084F844000A
:102CD00084F8450084F83D00002010BD08B5006868
:102CE0000649884208D10648816941F40061816142
:102CF000806900F40060009008BD0000002C0140D5
:102D0000001002407047000010B50446022249B18D
:102D100004290ED0082913D094F84100012816D0B8
:102D2000012010BD94F83E000128F9D184F83E201E
:102D30000FE094F83F000128F2D184F83F2008E02A
:102D400094F840000128EBD184F8402001E084F899
:102D500041200122206801F0ABF80F492068884229
:102D600003D1426C42F4004242642068884208D099
:102D7000B0F1804F05D00949884202D00849884205
:102D800004D1816801F00701062903D0016841F0F0
:102D900001010160002010BD002C01400004004032
:102DA000000800400D4900680968884214D10C48A9
:102DB0004188491C8AB26421B2FBF1F301FB132361
:102DC0004280012113B98180C1804170B2F5FA7F40
:102DD00002D3017000214180704700009001002063
:102DE000240000207047704770470000F8B5016864
:102DF00004460868CA684B6910F00F0F4FF00005D1
:102E000059D003F0010602F49077374365D0C1072B
:102E100005D0D10503D5616C41F001016164410722
:102E200005D5D90703D0616C41F0020161648107C7
:102E300005D5D90703D0616C41F004016164010735
:102E400007D502F02001314303D0616C41F0080145
:102E50006164616C00293AD0800604D5900602D5E1
:102E6000204601F039F920684069616CC0F3801098
:102E7000090700D460B3204601F007F920684069D3
:102E8000400621D52068143050E8001F21F0400191
:102E900040E80012002AF5D1E06BA8B16D4941630A
:102EA000E06BFEF76FFC002811D0E06B416B01B0C6
:102EB000BDE8F040084783060FD593060DD52046A0
:102EC000BDE8F84001F008B92046FFF78DFFF8BDD6
:102ED0002046FFF789FF6564F8BD266B2023012E8D
:102EE0007CD1C6067AD5D60678D5086848680090A1
:102EF00048694FF00206400640D5E16B086840681B
:102F00000004000CE8D0A28D8242E5D9E0858869F2
:102F100020282DD020680C3050E8001F21F480714B
:102F200040E80012002AF5D12068143050E8001F54
:102F300021F0010140E80012002AF5D12068143088
:102F400050E8001F21F0400140E80012002AF5D1AE
:102F500084F84230256320680C3050E8001F21F0CF
:102F6000100140E80012002AF5D1E06BFEF7E6FB05
:102F70006663A08DE18D401A81B22AE0A08DE18DBB
:102F8000401A81B2E08D0028A6D00029A4D0226882
:102F90000C3252E8000F20F4907042E80007002F36
:102FA000F5D12068143050E8002F22F0010240E8EB
:102FB0000027002FF5D184F84230256320680C30BB
:102FC00050E8002F22F0100240E80023002BF5D13A
:102FD00066632046FFF707FFF8BDFFE705062BD520
:102FE000150629D594F841002128F5D1A068B0F53F
:102FF000805F01D12069B0B1206A411C2162216843
:1030000000784860E08C401E0004000CE084E3D1AE
:103010002068C16821F08001C1602068C16841F06A
:103020004001C160D8E7206A0088C0F3080048600A
:10303000206A801C2062E5E74006CDD55006CBD53E
:10304000CA68204622F04002CA6084F8413000F08D
:1030500044F9C1E77B40000870B5040004D094F83F
:103060004100002510B106E0012070BD84F84050F9
:10307000204600F023F8242084F841002068C1682D
:1030800021F40051C160204601F088F820680169F0
:1030900021F4904101612068416921F02A014161D8
:1030A0002068C16841F40051C1606564202084F843
:1030B000410084F842006563002070BD70B586B0A1
:1030C000002400940194029403942B4E03682B492E
:1030D000022003222A4DB34221D18B6943F480435D
:1030E0008B618B6903F4804304938B6943F0040381
:1030F0008B618969039201F0040104910102CDE919
:10310000001069462846FEF79BFB2815CDE9000410
:10311000694628460294FEF793FB06B070BD194E2F
:10312000B342FAD1CB6943F40033CB61CB6903F4EA
:10313000003304938B6943F004038B618969039224
:1031400001F0040104910421CDE9001069462846EC
:10315000FEF776FB0820CDE9000469462846029474
:10316000FEF76EFB002211462620FEF7A5FF262063
:10317000FEF794FFD1E70000003801400010024044
:1031800000080140004400402DE9F84F044690F843
:1031900042009A4616460D46202802D00220BDE87D
:1031A000F88FB5B1AEB100206064222184F84210DE
:1031B0002063FEF73FFCA6858146E685A0684FF4B4
:1031C00080582027404501D1206920B12E46002596
:1031D00029E00120E3E7002625E04B4600222021DC
:1031E0002046CDF800A001F035F818B184F84270FF
:1031F0000320D4E726B1A06840451AD038B108E0D2
:1032000020684068C0F3080025F8020B08E0206938
:1032100078B12068406800F07F0000BF06F8010B1D
:10322000E08D401EE085E08D0028D6D184F8427004
:10323000B5E720684068F1E770472DE9F843044698
:1032400090F84100984616460D46202802D00220EC
:10325000BDE8F88385B17EB100206064212084F848
:103260004100FEF7E7FBA6848146E684A06820279C
:10327000B0F5805F02D003E00120E9E7206910B1DA
:103280002E4600250EE000260CE08021204600F0AE
:10329000E1FFA8B9C6B116F8010B21684860E08CBF
:1032A000401EE084E08C4B464FF00002CDF80080D9
:1032B0000028EAD14FF04001204600F0CBFF40B19A
:1032C00084F841700320C3E735F8020BC0F308000F
:1032D000E3E784F841700020BAE77047FEE7016831
:1032E0004A69D24352050FD46FF480624A610021CB
:1032F00040F8301F202242738173026942F00402B9
:103300000261017301207047002070472DE9F84FDA
:103310000446C06A1E4693460D4621680A6842F478
:1033200080620A60082807D0012805D010F5803F88
:1033300002D0206B112804D12068016841F480710B
:1033400001604FF001195B46002249462046009675
:1033500000F0CCF84FF4007840B120680068C00558
:1033600001D5C4F840800320BDE8F88F2069DFF85C
:1033700084A0B0F5804F0FD00620216800EAD51751
:1033800047F0F000086133465A460AF1060120462C
:1033900000F0F4F858BB03E0E8B240F001001CE094
:1033A0002168E8B2086133465A465146204600F08B
:1033B000E5F8E0B92068416981690091016841F44C
:1033C000807101605B46002249462046009600F06D
:1033D0008DF80028C1D147F0F1002168086133461B
:1033E0005A465146204600F0C9F80028BCD00120BA
:1033F000BAE7000002000100F8B50446C06A1E46A4
:103400000D461746082807D0012805D010F5803F43
:1034100002D0206B122804D12068016841F4807129
:103420000160134600224FF001112046009600F083
:103430005DF840B120680068C00502D54FF4007007
:1034400020640320F8BD2069B0F5804F0ED006201F
:10345000216800EAD51040F0F000086133463A4692
:103460000B49204600F08AF878B902E005F0FE002A
:1034700000E0E8B221680861054933463A46891FF1
:10348000204600F07BF80028DCD00120F8BD0000C9
:103490000800010070B516460D4604461EE02046A1
:1034A000FFF71DFF08B1012070BD681C16D0FEF7A4
:1034B000C1FA801BA84200D885B920684069C04382
:1034C00040070BD5002044F8300F20216173A07312
:1034D000216941F0200121612073E4E720684069FF
:1034E000C0434007DBD4002070BD00002DE9F04749
:1034F000984617460D460446C1F30746DDF820906E
:103500002AE000BFB8F1FF3F26D0FEF793FAA0EB08
:103510000901414502D8B8F1000F1DD12068012EE4
:1035200016D0806925EA00000004000C12D00020AB
:10353000B84211D1002044F8300F20216173A073EC
:10354000216941F02001216120730120BDE8F0874D
:103550004069E7E70120EBE72068012E0AD0806987
:1035600025EA00000004000C06D00020B842C9D0B3
:103570000020EBE74069F3E70120F7E72DE9F0478A
:10358000984616460D4604464FF000094FF0200AB3
:10359000C1F3074723E020684069C043400515D4C4
:1035A0002068016841F40071016021686FF4806057
:1035B0004861C4F8309084F83DA084F83E90216CB6
:1035C00041F00401216484F83C9021E0701C06D095
:1035D000FEF730FAA0EB0800B04203D816B1012F75
:1035E0001FD021E02068012F15D0806925EA000056
:1035F0000004000C18D000BF44F8309F84F80DA0E0
:1036000084F80E90216941F02001216184F80C902A
:103610000120BDE8F087406925EA00000004000CA5
:10362000EAD12068406901E02068806925EA00004D
:103630000004000CAFD1ECE72DE9F04100259046E5
:103640000E460446202728E04069C043C0060CD43B
:1036500054F8301B6FF01000486144F81059677738
:10366000A577206A2062257714E0FEF7E3F9A0EB46
:103670000800B04200D886B920684069C0434006BF
:103680000BD544F8305F6773A573206940F02000C4
:10369000206125730120BDE8F08120684169C9439C
:1036A0004906D1D40020F6E770B516460D4604460B
:1036B0001EE02046FFF713FE08B1012070BD681C14
:1036C00016D0FEF7B7F9801BA84200D885B920684C
:1036D0004069C04300060BD5002044F8300F20217C
:1036E0006173A073216941F0200121612073E4E737
:1036F00020684069C0430006DBD4002070BD2DE97E
:10370000FE430600DDE90A75DDF830800ED06AB1AF
:1037100067B15DB161B15BB102A8CDE9000530468A
:1037200002F05AF80446012804D017E0052415E0F9
:10373000062413E00298305C01F07CFF012805D1DB
:103740000299491C02912968891E29600299B8F1E1
:10375000000F3144396001D088F800002046BDE8F0
:10376000FE83FEB508AF97E870008DE87000FFF7A4
:10377000C6FFFEBDF8B506004FF000000D460090F4
:103780000DD075B10A466946304602F028FC2A463B
:103790006946304602F0DEF928B101240BE0052429
:1037A00015E0062413E02A466946304602F00CFA7A
:1037B000044601280BD10098A84208D22A4669463F
:1037C000304602F00CFC0098A84200D002242046AB
:1037D000F8BD00003EB500211048009101910E4A4D
:1037E0000291026081600173017501244FF460222F
:1037F0000461C2614160FDF7D1FD08B1FDF727FD0D
:1038000000940194694605480294FDF745FD00289F
:1038100001D0FDF71CFD3EBD00240140400000200A
:103820003EB5002410480094019402940D49846030
:10383000016004730475012505614FF46021446043
:10384000C161FDF7ABFD08B1FDF701FDCDE9004514
:10385000694605480294FDF71FFD002801D0FDF7D9
:10386000F6FC3EBD00280140700000202DE9F04725
:1038700086B000252B480095019502950395816936
:1038800041F010018161816901F0100104918169A9
:1038900041F020018161816901F020010491816979
:1038A00041F004018161816901F0040104918169A1
:1038B00041F0080181618069012200F00800DFF811
:1038C00068805403049021464046FEF7AEF8DFF8C6
:1038D0005C90002220214846FEF7A7F8DFF850A0B0
:1038E000A700002239465046FEF79FF800940124B5
:1038F0000226CDE90246694640460194FDF7A0FF45
:1039000020208DE8710069464846FDF799FF01AA1D
:10391000009782E8700069465046FDF791FF06B0B7
:10392000BDE8F0870010024000100140000801408F
:10393000000C01400D4810B50B4901600C49416075
:1039400000214FF480428160C0E90312416181612E
:10395000C1610162FEF774F8002803D0BDE8104091
:10396000FDF775BC10BD000000540040A000002011
:10397000A08601000D4810B50B4901600C4941605B
:1039800000214FF480428160C0E9031241618161EE
:10399000C1610162FEF754F8002803D0BDE8104071
:1039A000FDF755BC10BD000000580040F400002099
:1039B000A086010010B592B000240F941C2108A825
:1039C0001094FCF7C6FB20216846FCF7C2FB204898
:1039D0001E4901604721C0E9011444F61F61C0E996
:1039E000031444618461FFF74CF908B1FDF72FFC23
:1039F0000F940FA916481094FEF704FF08B1FDF7C5
:103A000026FC6020CDE908040A940B940C940D94D4
:103A1000002208A90E480E94FFF7CDF808B1FDF773
:103A200016FC00944FF40050CDE904400294019438
:103A30000394694606480794FEF7BAFE08B1FDF7FD
:103A400006FC0348FFF790F812B010BD002C0140AF
:103A50004801002010B586B0002416480094019457
:103A60000294039404944FF080410594016041F660
:103A70001F41C0E901146421C0E903148461FEF709
:103A8000F5FE08B1FDF7E3FB4FF480500090694666
:103A90000848FEF761FF08B1FDF7D9FB049404A9BB
:103AA00004480594FEF7AEFE002801D0FDF7CFFBD9
:103AB00006B010BD900100200C4810B50A49016005
:103AC0004FF4E1314160002181600C22C160C0E906
:103AD00004128161C161FFF7BFFA002803D0BDE87D
:103AE0001040FDF7B4BB10BD00380140D8010020E4
:103AF0000C4810B50A4901604FF4E13141600021E2
:103B000081600C22C160C0E904128161C161FFF7CC
:103B1000A3FA002803D0BDE81040FDF798BB10BD04
:103B20000044004020020020FEE7FEE770B5802838
:103B300017D2002915DB3F2913DCCB1701EB537596
:103B4000C5F3C70325F007050124094E491B8C4026
:103B500006EBC000012A05D0C15C022A05D0A143B2
:103B6000C15470BDC15C2143FAE76140F8E7000031
:103B7000E804002010B50021AE2001F081FF0021F3
:103B8000202001F07DFF0021102001F079FF0021AD
:103B9000B02001F075FF0021C82001F071FF002165
:103BA000084601F06DFF0021102001F069FF00219F
:103BB000402001F065FF0021812001F061FF00211C
:103BC000FF2001F05DFF0021A12001F059FF00213D
:103BD000A62001F055FF0021A82001F051FF00218F
:103BE0003F2001F04DFF0021A42001F049FF0021FA
:103BF000D32001F045FF0021084601F041FF0021DC
:103C0000D52001F03DFF0021F02001F039FF002117
:103C1000D92001F035FF0021222001F031FF0021E1
:103C2000DA2001F02DFF0021122001F029FF0021F0
:103C3000DB2001F025FF0021202001F021FF0021E1
:103C40008D2001F01DFF0021142001F019FF00213B
:103C5000BDE81040AF2001F013BF00000FB40428EE
:103C600070B50C46054613D8142C11D80A4E07AA75
:103C70000A483260069900F057FBC4F11501074A63
:103C80000020C9B2306050542146284600F072F836
:103C900070BC5DF814FB00002000002068040020C8
:103CA00070B50B4E00242146002000F013F80025CB
:103CB00006EBC5000121005D01F0E2FE6D1CEDB2D6
:103CC000802DF5D3641CE4B2082CECD370BD000049
:103CD000E804002010B50446B031C8B2002101F05C
:103CE000CFFE102040EA1410002101F0C9FE04F0BC
:103CF0000F00BDE81040002101F0C2BE2DE9F04FD9
:103D000001EB410100EB400049068006040E203A19
:103D10004FEA1169D0B2164900EB4000A0460025D9
:103D200001EB800B00261BF805704FFA89FA380664
:103D300001D5012200E0002261B25046FFF7F6FEF5
:103D40007806641C070EE4B2A4EB08000C2809D026
:103D5000761CF6B2082EEAD36D1CEDB20C2DE1D321
:103D6000BDE8F08F09F10100444600F0FF09F3E7D8
:103D7000546300082DE9F04117460C46064600251D
:103D80000CE021463046FFF7B9FF641CE4B2142C66
:103D900002D90024761CF6B26D1CEDB27A5D002AC1
:103DA000EFD1BDE8F041FFF77BBF70477047FEF7EA
:103DB0001DB930B593B028216846FCF7CAF9142123
:103DC0000AA8FCF7C6F9002501200F95109511955A
:103DD000010412958DE8230004904FF4E010CDE922
:103DE0000810022407946846FEF73CFB08B172B63F
:103DF000FEE70AA90F2081E831004FF48060CDE989
:103E00000D0502210AA8FEF751FA08B172B6FEE7C5
:103E10004FF4004011900F940FA8FEF7D1F900283D
:103E200001D072B6FEE713B030BD70470148FEF70F
:103E300002BE000090010020F0B50268194B1A4C38
:103E40001A4D4FF08047984205D0B84203D0A042A7
:103E500001D0A84203D122F070064A68324398424A
:103E600005D0B84203D0A04201D0A84203D122F429
:103E70004074CA6822434C6922F0800222430260E7
:103E80008A68C2620A688262984201D10969016344
:103E9000012141610169C90703D0016921F00101D4
:103EA0000161F0BD002C014000040040000800400A
:103EB00010B501F01F030121046A99408C4304628C
:103EC000016A9A401143016210BD10B5846842EA4C
:103ED000032224F47F440A432243826010BD826897
:103EE00022F070020A4342F007018160704700002F
:103EF00030B5036A026A22F00102026242688469F4
:103F000024F073050C682C4323F002058B682B43C7
:103F10000A4DA8420BD123F00805CB6822F4407269
:103F20002B434D6923F0040315438A692A434260F9
:103F3000846149684163036230BD0000002C014088
:103F400030B5026A036A23F0100303624368846990
:103F50000D6824F4E64444EA05248D6822F020022A
:103F600042EA05120B4DA8420ED1CD6822F0800224
:103F700042EA05124D6923F4406343EA85038D69E3
:103F800022F0400243EA850343608461496881630B
:103F9000026230BD002C014030B5036A026A22F48F
:103FA000807202624268C46923F4007324F07305CE
:103FB0000C682C438D6843EA05230C4DA8420ED1B2
:103FC000CD6823F4006343EA05234D6922F440528F
:103FD00042EA05128D6923F4806342EA05124260C9
:103FE000C4614968C163036230BD0000002C014018
:103FF00030B5046A026A22F4805202624268C369E0
:104000000D6823F4E64343EA05238D6824F4005445
:1040100044EA0534064DA84204D14D6922F4804299
:1040200042EA85124260C36149680164046230BD9E
:10403000002C014010B5036A046A24F001040462F4
:10404000846924F0F00444EA021423F00A020A43CB
:104050008461026210BD10B5036A046A24F0100482
:104060000462846923F0A00324F4704444EA023219
:1040700043EA01118261016210BD10B5406A00215E
:10408000C185C184FEF7B0FE10BD01680C3151E856
:10409000002F22F4907241E80023002BF5D1016833
:1040A000143151E8002F22F0010241E80023002BD7
:1040B000F5D1016B012909D101680C3151E8002FBC
:1040C00022F0100241E80023002BF5D1202180F8D6
:1040D000421000210163704708B590F84210222970
:1040E00001D0022008BD82684FF480539A4201D16A
:1040F000016921B1816A9A421BD04AB10AE0026883
:10410000816A5268C2F308020A80816A891C08E049
:10411000026972B10268526802F07F020A70816A15
:10412000491C8162C18D491E0904090CC18503D057
:104130001BE002685268F1E70168CA6822F02002B9
:10414000CA600168CA6822F48072CA6001684A695C
:1041500022F001024A61202180F8421000214163CF
:10416000026B012A03D0FFF767F8002008BD016346
:1041700001680C3151E8002F22F0100241E80023C1
:10418000002BF5D101680A68D20602D50A68496891
:104190000091818DFEF727FEE7E7000070B5044629
:1041A00000680169E26821F440511143016121690D
:1041B000A0680843616908432168CA6841F20C633A
:1041C0009A430243CA6020684169A26921F44071A0
:1041D000114341611E492068884202D1FEF70CF963
:1041E00001E0FEF7F9F800EBC00101EB0012606896
:1041F00064218000B2FBF0F3B3FBF1F36FF018061B
:104200007343B2FBF0F5B2FBF0F605EB8305322306
:1042100003EB0515B5FBF1F5B6FBF1F605F0F0057E
:1042200005EB0615B2FBF0F6B2FBF0F0B0FBF1F0D7
:104230006FF01802504306EB800003EB0010B0FB58
:10424000F1F0216800F00F002844886070BD000084
:10425000003801402DE9F843984617460D460446BC
:10426000089E24E0701C22D0FDF7E4FBA0EB0800C0
:10427000B0421AD8CEB12068C168490717D5802D41
:1042800015D0402D13D00168C94309070FD4016828
:104290000025406800902046FFF7F7FE0820606484
:1042A00084F840500120BDE8F8830320FBE7206834
:1042B000006835EA000004D00020B842D2D00020C7
:1042C000F1E70120F9E7000010B501F021FFBDE89A
:1042D00010400148FEF78ABD20020020FEE70000E2
:1042E0000FB4054B10B503A9044A029800F014F965
:1042F00010BC5DF814FB00001D56000838000020BB
:104300000FB4084B10B504A902AA039800F004F9F1
:10431000044602A9002000F096FC204610BC5DF87F
:1043200014FB0000474C000837B514460846064BFE
:104330006A46214600F0F0F804466946002000F085
:1043400082FC20463EBD0000474C00080907090ECC
:10435000002804DB00F1E02080F80014704700F032
:104360000F0000F1E02080F8141D704700487047EE
:104370003C00002002E008C8121F08C1002AFAD140
:1043800070477047002001E001C1121F002AFBD1D5
:10439000704700002DE9FF5F82B00021DDE90430A5
:1043A000020DDDF840B0034318D044F61050A2F2DD
:1043B000FF3242431514119801281FD0A5EB0B00C2
:1043C000401C5FEA000A4FF000064E4FDFF83891BC
:1043D000B046504615D5CAF1000413E011980124E7
:1043E0004AA3012801D16FEA0B010298119AC0E992
:1043F0000031C0E9024206B0BDE8F09FCBF10000F9
:10440000DFE704460021404A491842EB0450CDE959
:10441000001012E0E00707D032463B4640464946CE
:10442000FCF776F98046894632463B4610461946E7
:10443000FCF76EF906460F466410002CEAD1DDE960
:104440000401DDE90023BAF1000F06DAFCF760F998
:1044500042464B46FCF75CF905E0FCF793FB42460D
:104460004B46FCF78FFB04460E460022284BFCF718
:1044700011FC03D84FF0FF30014607E00022254B26
:1044800020463146FCF79DF8FCF7EBFB102409E0D1
:10449000002C0ADB0A220023FCF714FA039B3032BB
:1044A0001A55641E50EA0102F2D1641C039AC4F149
:1044B00011031444119A012A03D0012208430DD19B
:1044C0000AE0084304D000204FF0110B119072E76E
:1044D000A3EB0B056D1E0DE05B4504DD4FF0000204
:1044E00005F1010504E003DA4FF00002A5F1010532
:1044F000002AECD002981199C0E90231C0E90045C8
:1045000079E70000000014400000F03F3000000098
:104510000000F0430000E03F2DE9FF4F95B09B46BF
:104520008946064600250FE2252877D10024274634
:10453000F84A0121059400E0044316F8013F203BAE
:1045400001FA03F01042F7D130782A2811D06FF029
:104550002F033078A0F13002092A16D8059A44F0CA
:10456000020402EB820203EB42021044761C059027
:10457000EFE759F8042B0592002A03DA504244F47D
:104580000054059044F00204761C30782E2816D191
:1045900016F8010F44F004042A280DD06FF02F0202
:1045A0003078A0F13003092B09D807EB870302EB21
:1045B0004303C718761CF3E759F8047B761C307860
:1045C0006C280FD006DC4C2817D068280DD06A283C
:1045D00014D104E0742810D07A280FD10DE044F4EF
:1045E00000140AE044F4801401E044F440147278AA
:1045F000824202D104F58014761C761C307866283D
:104600000BD013DC582877D009DC002875D045285A
:10461000F6D04628F4D047281AD19DE118E0632847
:1046200035D0642879D0652812D195E1702873D0EF
:1046300008DC6728F1D069286FD06E280DD06F286C
:1046400006D1B5E073282CD0752875D0782874D0A1
:104650005A46179990476D1C75E1C4F30250022821
:1046600009D003280DD0D9F8001004280DD00D6012
:1046700009F1040967E1D9F80010EA17C1E900520D
:10468000F6E7D9F800100D80F2E70D70F0E719F8A1
:10469000041B8DF8001000208DF80100EA4601206F
:1046A00003E059F804AB4FF0FF3061074FF0000111
:1046B00002D40DE008F101018846B9420FDA8045C5
:1046C000F8DB1AF808100029F4D108E008F101011C
:1046D00088468142FADB1AF808100029F6D10598BD
:1046E0005B46A0EB080721463846179A00F094FA7B
:1046F000284400EB080507E04DE029E10DE01AF839
:10470000010B5A4617999047B8F10108F7D25B465A
:1047100021463846179A13E142E00A220092C4F378
:1047200002524FF0000A022A08D059F804CB032A9B
:104730004FEAEC710AD00DE029E02AE009F1070107
:1047400021F00702F2E802C1914609E00FFA8CFC61
:104750004FEAEC71042A03D14FFA8CFC4FEAEC715A
:10476000002907DA0A460021DCF1000C61EB0201A6
:104770002D2202E0220504D52B228DF804200122EF
:1047800003E0E20701D02022F7E7904659E00A2132
:1047900002E010220DE010214FF0000A00910BE022
:1047A00010224FF0000A44F004040827009203E0AE
:1047B00008224FF0000A0092C4F30252022A05D0E8
:1047C00059F804CB0021032A08D009E009F10701B8
:1047D00021F00702F2E802C1914605E01FFA8CFCC5
:1047E000042A01D10CF0FF0C4FF00008220728D555
:1047F000702806D0009B83F0100353EA0A0305D00B
:104800000EE040228DF80420012208E05CEA01025B
:1048100006D030228DF804208DF805000222904643
:10482000009B83F0080353EA0A030AD15CEA010201
:1048300001D1620705D530228DF804204FF0010820
:104840007F1E582804D034A003900EA802900DE0DB
:1048500036A0F9E753466046009AFCF733F88446E1
:104860000398825C0298401E029002705CEA01008C
:10487000F0D1029806A9081A00F1200A600702D5B3
:1048800024F4803400E00127574502DDA7EB0A003D
:1048900000E0002000EB0A01009005984144401A16
:1048A0000590E00306D45B462146179A059800F070
:1048B000B3F90544002706E001A85A46C05D1799E0
:1048C00090476D1C7F1C4745F6DBE0030CD55B462B
:1048D0002146179A059800F09FF9054404E030201E
:1048E0005A46179990476D1C0099481E0090002960
:1048F000F5DC08E0029802995A460078491C0291BA
:10490000179990476D1CBAF10001AAF1010AF1DC78
:1049100065E1000009280100303132333435363783
:1049200038396162636465660000000030313233FB
:10493000343536373839414243444546000000009B
:1049400000F058F90544761C307800287FF4ECAD6F
:1049500019B02846BDE8F08F620700D4062709F198
:10496000070222F0070CFCE80223E14603F00048AE
:104970005FEA080C02D00FF2702C0DE05FEA045CD5
:1049800002D50FF2682C07E05FEAC47C02D00FF278
:10499000602C01E0AFF2700C4FF0FF3823F00043C1
:1049A000CDF850C065280CD006DC452809D0462833
:1049B0001DD047283DD13DE0662818D067287ED11C
:1049C00038E00021112F01DB112000E0781CCDE937
:1049D000000106A90EA8FFF7DDFCDDE90F010E9A24
:1049E00003910021009207F1010A04914DE04FF07C
:1049F00000400097CDE9011006A90EA8FFF7CAFCF8
:104A0000DDE90F0203920E9B11990022DDF80CA044
:104A10000093049211B9791C00EB010AB7EB0A006C
:104A200004D4C0F1FF3007F1010A0490AAEB07009B
:104A3000019044E0012F00DA01270021112F01DD50
:104A4000112000E03846CDE9000106A90EA8FFF7C5
:104A5000A1FCDDE90F010E9A03910021049100925F
:104A6000BA4621070CD40399514500DA8A46BAF1B7
:104A7000010F05DD009AAAF10101515C302908D02F
:104A8000B84202DA10F1040F06DA0121CDE9011073
:104A900015E0AAF10101E9E7002805DC04990144C9
:104AA0000491AAEB000102E0411C514500DD8A4659
:104AB0000499401A401C01904FF0004002902007DA
:104AC00004D40198504501DBCDF8048000208DF816
:104AD0004F0002980DF14F07B0F1004F25D02B2069
:104AE0000E9002984FF0020800280CDA4042029023
:104AF0002D200E9007E00A210298FBF7CDFE303101
:104B0000029007F8011DB8F10001A8F10108F2DCDC
:104B100002980028EFD1791E0E980870307800F0C6
:104B2000200040F0450007F8020D12A8C01B00F15C
:104B300007081498007800B1012000EB0A010198E1
:104B400001EBE07105984144401A401E0590E003D6
:104B500006D45B462146179A059800F05DF8054497
:104B60001498007818B15A46179990476D1CE003C5
:104B700024D55B462146179A059800F04DF8054468
:104B80001CE00498002807DBDDE90301884203DD0F
:104B90000098405C179901E0179930205A469047D9
:104BA000049805F10105401C04900198401E0190F5
:104BB00004D12E205A46179990476D1CBAF1000176
:104BC000AAF1010ADDDC05E017F8010B5A46179936
:104BD00090476D1CB8F10001A8F10108F4DC5B46B8
:104BE0002146179A0598ABE62D0000002B00000027
:104BF000200000002DE9F041044600251E4617461E
:104C0000880404D405E039462020B0476D1C641E9A
:104C1000F9D52846BDE8F0812DE9F041044600258C
:104C20001E469046C80301D5302700E0202788049F
:104C300004D505E041463846B0476D1C641EF9D5E1
:104C40002846BDE8F0810A68531C0B60107070475D
:104C50002DE9F04F87B04FF00005DDF840801E468B
:104C600093460C46070001950495A94602950FD07E
:104C700076B15FEA08000BD00A4601A9384601F078
:104C8000AEF90198A0422CD2395C5B2902D028E011
:104C9000AFF30080401C0190224601A9384601F084
:104CA0009EF90DF1080A19E004AB224601A9384625
:104CB000CDF800A000F05AFE98B1D94506D104986D
:104CC000306002990125C8F800100AE0224601A9C7
:104CD000384601F09AF920B109F101090198A04282
:104CE000E2D307B02846BDE8F08F02E00821491E54
:104CF000FDD2401EFAD2704770B5002400F038F89B
:104D00004FF40045124E04E0641CE4B20120FFF7AA
:104D1000ECFF29463046FCF783FE10B1642CF3D338
:104D20000FE0642C0DD2002404E0641CE4B20120E6
:104D3000FFF7DBFF29463046FCF772FE18B1642C02
:104D400004D3012070BD642CEFD3FAE7002070BDBE
:104D5000000C014010B500F091F84FF47A70FCF7A8
:104D60005DFD00F08BF8BDE81040FFF7C5BF000007
:104D70001FB50020019003904FF4004000900120E7
:104D8000029069460148FCF75BFD1FBD000C014025
:104D90001FB5002002904FF40040009001200190C8
:104DA0000320039069460248FCF74AFD1FBD00003E
:104DB000000C014070B500244FF40045134E04E090
:104DC000641CE4B20120FFF790FF29463046FCF74F
:104DD00027FE08B1642CF3D3002404E0641CE4B281
:104DE0000120FFF782FF29463046FCF719FE08B97B
:104DF000642CF3D32820FFF778FF29463046FCF7D0
:104E00000FFE002800D0012070BD0000000C014002
:104E100070B5002004464006050EFFF7CBFF641C6A
:104E20002843E4B2082CF6D370BD2DE9FC410D46B1
:104E3000064600F023F8FFF75FFF10B10120BDE840
:104E4000FC8100246F46FFF7E3FF3855641CE4B291
:104E5000052CF8D39DF800109DF801009DF8033053
:104E60000A189DF8020003441A449DF804309A423F
:104E700001D1297030700020E1E7000070B5FFF724
:104E800087FF0A4D4FF40044002221462846FCF7D4
:104E9000CCFD1420FCF7C2FC012221462846FCF779
:104EA000C4FDBDE870401E20FFF71FBF000C01408D
:104EB00070B54FF47A76002433461F2210A11848AB
:104EC000FEF7BBF9174D04E0641CA4B20120FCF707
:104ED000A5FC287860B1B4420CD24FF4FA50FCF72C
:104EE0009DFC11A11148FBF73FF918B1002402E025
:104EF000B442E9D30124688801F0FAF8204670BD75
:104F000041542B43574A41503D22626262222C2277
:104F1000777577757775766970363636220D0A00A3
:104F200020020020100000204F4B000068020020EB
:104F300070B54FF47A76002433464922104911485F
:104F4000FEF77BF9104D04E0641CA4B20120FCF7CD
:104F500065FC287860B1B4420CD241F28830FCF78D
:104F60005DFC0AA10A48FBF7FFF818B1002402E033
:104F7000B442E9D30124688801F0BAF8204670BD34
:104F80001C6E000820020020100000204F4B000083
:104F90006802002070B553480068C16841F02001E4
:104FA000C16051A0FFF79CF9002156A20846FEF708
:104FB00055FE4FF47A7402E02046FCF72FFC5CA209
:104FC0000D215CA000F060FA0028F5D15DA0FFF78C
:104FD00087F9002161A20846FEF740FE02E0204664
:104FE000FCF71CFC52A2062167A000F04DFA002835
:104FF000F5D167A0FFF774F900216CA20846FEF70F
:105000002DFE02E02046FCF709FC49A2112172A006
:1050100000F03AFA0028F5D174A0FFF761F90021F9
:1050200077A20846FEF71AFE41F2883402E02046D5
:10503000FCF7F4FB00F0F0F90028F8D17BA0FFF7B3
:105040004FF900217FA20846FEF708FE4FF4FA54FC
:1050500002E02046FCF7E2FBFFF72AFF0028F8D128
:1050600083A0FFF73DF9002187A20846FEF7F6FD71
:105070004FF4FA6502E02846FCF7D0FB2CA2C421CD
:105080008C4800F001FA0028F5D18BA0FFF728F931
:1050900000218FA20846FEF7E1FD02E02046FCF762
:1050A000BDFBFFF745FF0028F8D194A0FFF718F9E2
:1050B000002197A20846FEF7D1FD02E02846FCF742
:1050C000ADFB1BA242219B4800F0DEF90028F5D180
:1050D00099A0FFF705F9BDE8704000219CA20846A1
:1050E000FEF7BCBD20020020312E53455454494EDA
:1050F000472053544154494F4E204D4F44450D0ACB
:1051000000000000312E53455454494E472053545B
:105110004154494F4E204D4F44452020202020200F
:1051200020202020202020202020202020000000DF
:105130004F4B000041542B43574D4F44453D310DDB
:105140000A000000322E434C4F534520455350383F
:10515000323636204543484F0D0A0000322E434C6C
:105160004F53452045535038323636204543484F3B
:10517000202020202020202020202020202020202F
:105180002020202020000000415445300D0A00005E
:10519000332E4E4F204155544F20434F4E4E4543E2
:1051A0005420574946490D0A00000000332E4E4F47
:1051B000204155544F20434F4E4E454354205749AC
:1051C0004649202020202020202020202020202090
:1051D000202020202000000041542B4357415554EB
:1051E0004F434F4E4E3D300D0A000000342E5245C5
:1051F00053455420455350383236360D0A000000CE
:10520000342E5245534554204553503832363620BB
:10521000202020202020202020202020202020208E
:10522000202020202020202020000000352E434F69
:105230004E4649472057494649204E4554574F52FC
:105240004B0D0A00352E434F4E46494720574946DD
:1052500049204E4554574F524B20202020202020DB
:10526000202020202020202020202020200000009E
:10527000362E4D515454205553455220434F4E46DF
:1052800049470D0A00000000362E4D515454205558
:1052900053455220434F4E4649472020202020208E
:1052A00020202020202020202020202020202020FE
:1052B00020000000506C0008372E434F4E4E4543EF
:1052C00054204D5154542042524F4B45520D0A0028
:1052D000372E434F4E4E454354204D515454204297
:1052E000524F4B45522020202020202020202020DB
:1052F000202020202020202020000000382E535580
:105300004253435249424520544F5049430D0A00ED
:10531000382E53554253435249424520544F504929
:10532000432020202020202020202020202020205A
:1053300020000000186D0008392E455350383236D1
:105340003620494E4954204F4B2121210D0A00009F
:10535000392E4553503832363620494E4954204F65
:105360004B2121212020202020202020202020200F
:10537000202020200000000030B5A1B000202090A7
:1053800080216846FAF7E5FE184D2878012826D1D5
:105390004FF4FA74A888401CA8802046FCF73EFA17
:1053A000A8880528F6D312A11548FAF7DDFEB0B19A
:1053B0006B4620AA13491248FAF7F0FE6A4612A07B
:1053C0002099FEF78DFF6846FAF7E0FE20998842A3
:1053D00005D1C9B2684600F067FB044600E001242D
:1053E000688800F085FE21B0204630BD1000002006
:1053F0002B4D515454535542524543563A000000E8
:1054000068020020686E00086C656E3A25642C6D99
:1054100073673A25730D0A0070B500244FF47A7350
:10542000082212A11448FDF708FF144D4FF4FA6644
:1054300004E0641CA4B20120FCF7F0F9287860B104
:10544000B4420CD241F28830FCF7E8F90CA10D48C7
:10545000FAF78AFE18B1002402E0B442E9D301242D
:10546000688800F045FE204670BD000041542B5274
:1054700053540D0A000000002002002010000020FC
:105480004F4B0000680200202DE9F04117460A4604
:105490004FF47A760146002533461548FDF7CDFED8
:1054A000144C03E001206D1CFCF7B8F9207818B10A
:1054B000B54204D3012514E0B542F3D3FAE74FF423
:1054C000FA75A088401CA0800120FCF7A7F9A088ED
:1054D000A842F6D3022539460748FAF745FE00B13F
:1054E0000025608800F004FE2846BDE8F081000039
:1054F0002002002010000020680200202DE9F04169
:10550000C4B000263546022142A8FBF755FEBDF87F
:10551000080140BAFBF76EF93049FBF708F84FF085
:105520007C51FAF77AFFFBF76AF9C4B2FBF792FEF7
:10553000FBF75CFEFBF763F9C0B2CDE900402848F9
:10554000294903782748027802A8FEF7D9FE02A865
:10555000FAF71CFE82B24FF47A773B4602A9234841
:10556000FDF76BFE02A8FAF711FE82B23B4602A9D4
:105570001F48FDF762FE4FF4FA781E4C04E06D1CE4
:10558000ADB23846FCF74AF9207818B1454504D346
:1055900001261CE04545F2D3FAE73846FCF73EF910
:1055A00015A11648FAF7E0FD01004FF0000002D007
:1055B000002660700BE06178491CC9B26170052952
:1055C00005D160700EA0FEF78BFEFFF7E3FC60884C
:1055D00000F08EFD44B03046BDE8F0819A99993FC5
:1055E00018000020170000205C6D00082002002039
:1055F000D8010020100000204F4B0000680200205E
:105600005245434F4E4E454354204D515454204231
:10561000524F4B45522121210D0A000013B54FF680
:10562000FF73012269460248FDF707FE00981CBD82
:10563000D80100206E2817D006DC22280AD05B286B
:105640000CD0662804D10DE0742809D07B2803D043
:1056500002207047012070470620704707207047DE
:10566000032070470420704705207047A0F16101B6
:10567000052902D92031052902D80A31C8B270475C
:105680003038092801D8C0B2704710207047000098
:1056900038B51D4C00211D48FDF736FBB420FCF742
:1056A000BDF802216846FBF787FDBDF8000040BA4F
:1056B000FBF7A0F81649FAF73AFF4FF07C51FAF7DA
:1056C000ACFE05462089FBF795F82946FBF7DAF88A
:1056D00001D8012000E000206080A0886188884215
:1056E00011D00A4A4FF47A70012901D019B108E0AB
:1056F00040F6C41101E040F2DC5112685163FCF73E
:105700008DF86088A08038BD2C0000204801002062
:105710009A99993F70B5174CFBF79CFDFBF766FD16
:1057200005466089FBF766F82946FBF7ABF801D818
:10573000002000E001202080E18880B2814218D062
:105740000D4D4FF47A76012807D1002220212846FA
:10575000FCF76BF93046FCF761F8208838B9012274
:1057600020212846FCF761F93046FCF757F82088DD
:10577000E08070BD2C000020000801400248642138
:1057800001810A21418170472C000020FCF736FC82
:10579000FEF70FFBFEF76AF8FEF7CCF8FEF75AF9B2
:1057A000FEF78AF9FEF7A4F9FEF714F8FEF738F8C9
:1057B000FEF700F9FEF7DEF800F0CEFC4FF47A7445
:1057C00000F012FDFFF7DAFFFFF762FFFFF7A2FF1D
:1057D0002046FCF723F8F3E72DE9F04F85B05FEAA8
:1057E000000A4FF00000DDE90E98CDE902101C46DA
:1057F00015464FF001070646049037D0ADB35FEA77
:10580000090033D05FEA080030D071B36CB30DF1FA
:10581000080B0498A04254D2285C5B2804D004985A
:10582000014615B32CBB21E04FF0FF3001900498E6
:1058300001AB401C0490224604A9284600F018FA47
:105840000198002824DB0498A04221D2295C5D291C
:105850001ED1401C0490CDF800B0DDE901210AEB17
:10586000060003ABFFF7F4F91DE0FFE7AFF300809C
:10587000401CA04204D22A5C2E2A01D05B2AF7D118
:10588000814205D2431A02460490601E824201D131
:1058900006271BE003AACDE9002B6A180AEB0600D5
:1058A000029900F095F850B1039806440498A0427C
:1058B000AFD2295C2E29ACD1401C0490A9E7042763
:1058C00004E0C9F800600299C8F8001005B0384635
:1058D000BDE8F08F2DE9FC5F1F46DDE90DB9DDF86D
:1058E00030A016460D465FEA000829D045B33EB306
:1058F00037B35FEA0A0023D05FEA0B0020D05FEAEB
:1059000009001DD02C6801A94046019400F0A5FBB8
:10591000002813D0601C386001983246001B801E9E
:10592000CAF8000001A9404600F059FB0198B042B6
:1059300003D218F800103A2904D00020BDE8FC9FDB
:10594000AFF30080401C0190324601A9404600F0B0
:1059500046FB5B46324601A94046CDF8009000F078
:1059600005F80028EAD001992960E7E72DE9F84F0A
:105970001F46DDF8288091460D465FEA000A4FF089
:10598000010610D07DB1B9F1000F0CD05FB15FEA14
:10599000080008D02C684A4669465046009400F03A
:1059A000D9F868B901E0AFF300804A46694650462D
:1059B00000F00AF9012803D000263046BDE8F88F30
:1059C0003C600098011BC8F8001000982860F4E7BC
:1059D0002DE9FF4F89B04FF00006DDE916870C4630
:1059E000050003960496059611D00B9878B15FEAEE
:1059F00008000CD05FB10A4603A9284600F0EFFA70
:105A00000398A04238D2295C7B2902D034E0AFF35E
:105A10000080401C0390224603A9284600F0DFFACC
:105A20000DF114090DF1100A0DF1180B21E0CDF85C
:105A300000B0CDE901A908AB224603A92846FFF72B
:105A400049FFC8B1069A0C9890420CD108982918C1
:105A50000B9800F033FB30B10499C8F8001005989A
:105A60000126386008E0224603A9284600F0CDFA56
:105A700010B10398A042DAD30DB03046BDE8F08FE4
:105A800008B5074A01B14021117050700A200090FA
:105A90000223034A78210348FCF7BEF908BD000041
:105AA0001C000020A00000202DE9F04119A20E46A4
:105AB000804688B007CA05AB002483E807000A25A2
:105AC00031464046FDF756FE01280DD103A804A932
:105AD000CDE9001000272B4605AA02973146404623
